:0C12060025582D0000D5005E002A00D9FC
:06121200C10BC18AC109F5
:10119800D3EF9400EE940040147D6E7C00ED1D703A
:0D11A800011CED4C70F7EF1F70E61E80E398
:0111B5002217
:0B0FA6009000DCEBF0A3EAF0A3E9F000
:100FB100E49000E2F0A3F09000E2E0FEA3E0FFC3C2
:100FC1009404EE64809480505F9000DCE0FBA3E029
:100FD100FAA3E0F98F828E83120677FD7C009000E0
:100FE100E3E025E0FF9000E2E033FE9000DFE0FB6C
:100FF100A3E0FAA3E0F98F828E831206D8FFAEF048
:10100100D3ED9FEC9E40057E007F0122C3ED9FEC56
:101011009E50057EFF7FFF229000E3E004F0709771
:0B1021009000E2E004F0808FE4FEFF8E
:01102C0022A1
:1009BB0078027C007D017BFF7A12790A7E007F082A
:1009CB0012065180127B017A00796E7F52120F1E34
:1009DB00900000EFF0600E12114512107F121219E9
:1009EB001211E780E07B017A00796E120B3F9000C9
:1009FB0000EFF070D0E4900001F0900001E0FFC335
:100A0B009404502F746E2FF582E43400F583E0FFCD
:100A1B007E0090000AEEF0A3EFF07BFF7A127906CE
:100A2B0090000FEEF0A3EFF012006E900001E004C7
:100A3B00F080C7C280E4900001F0E4FFFE0FBF001E
:100A4B00010EEF64504E70F5B2B6900001E004F069
:100A5B00E0B4FAE67F647E00121198D2807F647E48
:100A6B0000121198C2807FC87E00121198D280129A
:050A7B00102D0209D05E
:101145007580FF7590FF75B0FF75A0FF75892175D6
:101155009850758DF4758BF4E4F58CF58AD28CD2A4
:0C116500A9D28ED299D2AFD2ACD298227F
:1011B600D3EF9400EE940040147D6E7C00ED1D701C
:0D11C600011CED4C70F7EF1F70E61E80E37A
:0111D30022F9
:0D0F1E0090000CEFF0A3EBF0A3EAF0A3E9C4
:100F2B001211D47D077F0D12110A7D037F1412114C
:100F3B00F990000CE0900012F09000297401F0A3DE
:100F4B00F0A37400F0A37412F0A37401F0A3740067
:100F5B00F0A37410F07A00791212038AEF703990B3
:100F6B000010E07004A3E06410702D900012E0FEFE
:100F7B0090000DE0FBA3E0FAA3E0F9EE1206A490BB
:100F8B000013E0FE90000DE0FBA3E0FAA3E0F99064
:0A0F9B000001EE1206B680027FFE90
:010FA5002229
:0B0B3F0090000CEBF0A3EAF0A3E9F03B
:100B4A00E49000101211D4E4FD7F0D12110A7D8089
:100B5A007F0E1211D99000137493F0A37420F090B1
:100B6A0000297402F07B01A314F0A37400F0A374AB
:100B7A0013F0A3EBF0A37400F0A37411F07A0079D8
:100B8A00137F0C12038E90000FEFF07058FC741351
:100B9A002CF582E43400F583E0FE90000CE0FBA320
:100BAA00E0FAA3E0F9AF048F82758300EE1206B66D
:100BBA00900010E0FE74132FF582E43400F583E010
:100BCA00FDEE6D900010F00CECB404C274132CF519
:100BDA0082E43400F583E0FF900010E06F60069035
:100BEA00000F74FEF07D807F0E1211F990000FE065
:010BFA00FFFB
:010BFB0022D7
:0B0CB000900082EBF0A3EAF0A3E9F053
:100CBB009000877493F0A37470F0E490008DF0FCB7
:100CCB00900082E0FBA3E0FAA3E0F9AF048F8275FA
:100CDB008300120677FE74892FF582E43400F583C6
:100CEB00EEF090008DE0FE8F82758300120677FD8B
:100CFB00EE6D90008DF00CECB404C59000257401E2
:100D0B00F0A37400F0A3748EF07B017A0079877DD9
:100D1B0007120C131211D59000297409F0A374015A
:100D2B00F0A37400F0A37487F0A37401F0A3740014
:100D3B00F0A37485F07B017A0079877F0C12038E08
:100D4B00EF700F900085E07004A3E064187003FF50
:040D5B0080027FFE95
:010D5F002271
:0B0D6000900038EBF0A3EAF0A3E9F0EC
:100D6B00900041EFF0A3EDF0E4FF900038E0FBA31F
:100D7B00E0FAA3E0F98F82758300120677FE7443C5
:100D8B002FF582E43400F583EEF00FEFB406DBE4CD
:100D9B00FF90003BE0FBA3E0FAA3E0F98F827583A1
:100DAB0000120677FE74492FF582E43400F583EECA
:100DBB00F00FEFB406DB900029740CF0A37401F074
:100DCB00A37400F0A37441F0A37401F0A37400F0BA
:100DDB00A3743FF07B017A0079417F0E12038E9052
:100DEB00003EEFF070097F081210C9EF20E3069068
:0A0DFB00003E74FEF090003EE0FFA1
:010E050022CA
:0B0E0600900099EBF0A3EAF0A3E9F0E4
:100E110090009E7430F0A3EFF09000257401F0A3D0
:100E21007400F0A374A0F07A00799E120C0F900068
:100E3100297404F0A37401F0A37400F0A3749EF06C
:100E4100A37401F0A37400F0A3749CF07B017A00F9
:100E5100799E7F0C12038EEF703490009CE0700439
:100E6100A3E064907028FE749E2EF582E43400F5B0
:100E710083E0FD900099E0FBA3E0FAA3E0F98E8204
:100E8100758300ED1206B60EEEB410DB80027FFE14
:010E9100223E
:0B08C0009000B0EBF0A3EAF0A3E9F019
:1008CB009000B574A0F0A3EFF09000257401F0A395
:1008DB007400F0A374B7F07B017A0079B57D021236
:1008EB000C139000297404F0A37401F0A37400F0AE
:1008FB00A374B5F0A37401F0A37400F0A374B3F068
:10090B007B017A0079B57F0C12038EEF7016900085
:10091B00B3E07004A3E06404700A9000B5E0540FD8
:10092B00640A60027FFEEF60030209BAFE9000B01A
:10093B00E0FBA3E0FAA3E0F98E8275830012067741
:10094B00FD74B52EF582E43400F583EDF00EEEB4B4
:10095B0010DB9000257401F0A37400F0A374C5F0B4
:10096B007B017A0079B57D10120C1390002974125B
:10097B00F0A37401F0A37400F0A374B5F0A3740199
:10098B00F0A37400F0A374B3F07B017A0079B57F08
:10099B000C12038EEF70169000B3E07004A3E064AA
:0F09AB0004700A9000B5E0540F640A60027FFEEA
:0109BA00221A
:100A8000900054EBF0A3EAF0A3E9F0900053EDF0EE
:100A9000900059EFF0A3ED120BFC120368EF7016F3
:100AA000900057E07004A3E06404700A900059E0DD
:100AB000540F640A60027FFEEF7052FE900054E013
:100AC000FBA3E0FAA3E0F98E82758300120677FD9E
:100AD00074592EF582E43400F583EDF00EEEB41077
:100AE000DB9000257401F0A37400F0A3745DF07B2B
:100AF000017A0079597D04120C13E4900057F0A399
:100B0000F0740612036AEF64FE6002E4FFEF702ED9
:100B100090005974B0F0900053E090005A120BFC12
:100B2000120368EF7016900057E07004A3E06404AD
:0E0B3000700A900059E0540F640A60027FFEC4
:010B3E002294
:05078E009000C7EDF032
:100793009000CA74C2F0A3EFF09000257401F0A397
:1007A3007400F0A374CCF07B017A0079CA7D021245
:1007B3000C139000297404F0A37401F0A37400F0E7
:1007C300A374CAF0A37401F0A37400F0A374C8F077
:1007D3007B017A0079CA7F0C12038EEF70169000AA
:1007E300C8E07004A3E06404700A9000CAE0540FE8
:1007F300640A60027FFEEF70529000CAF0A3F0A378
:10080300F0A3F07B0190002504F0A37400F0A3741F
:10081300CEF07A0079CA7D04120C13900029740675
:10082300F0A37401F0A37400F0A374CAF0A37401DD
:10083300F0A37400F0A374C8F07B017A0079CA7F37
:100843000C12038EEF64FE6002E4FFEF60037FFE91
:10085300229000CA74B0F09000C7E09000CBF090F3
:1008630000257401F0A37400F0A374CCF07B017A2B
:100873000079CA7D02120C139000297404F0A3744A
:1008830001F0A37400F0A374CAF0A37401F0A3747D
:1008930000F0A374C8F07B017A0079CA7F0C1203BD
:1008A3008EEF70169000C8E07004A3E06404700A31
:0C08B3009000CAE0540F640A60027FFE4F
:0108BF002216
:10102D0090000F7450F0E4A3F07B0190002504F0C4
:10103D00A37400F0A37411F07A00790F7D02120CE5
:10104D00139000297404F0A37401F0A37400F0A3AD
:10105D00740FF0A37401F0A37400F0A3740DF07B72
:10106D00017A00790F7F0C12038E90000CEFF07F48
:01107D000072
:01107E00224F
:100BFC00F09000257401F0A37400F0A3745BF07AFC
:070C0C000079597B017D0214
:0E0C1300900021EBF0A3EAF0A3E9F0A3EDF0CE
:100C21007D047F051211D91211067D807F0A1211F0
:100C3100F9E4900028F0900024E0FF900028E0FE05
:100C4100C39F5021900021E0FBA3E0FAA3E0F98EBD
:100C510082758300120677FD7F0912110A90002820
:100C6100E004F080D17D037F0112110A9000287405
:100C7100FFF07F051210C9900028E014F0E0600435
:100C8100EF30E2EE7F221210C9900025E0FBA3E0D5
:100C9100FAA3E0F9EF1206A47F211210C9900025F2
:0F0CA100E0FBA3E0FAA3E0F9900001EF0206B632
:10107F00D2A300C2A300D2A37F0A7E001211B67DB5
:10108F000F7F0112110A007D3D7F1112110A7D1E83
:10109F007F2D12110AE4FD7F2C12110A7D8D7F2AFC
:1010AF0012110A7D3E7F2B12110A7D407F151211FE
:0410BF000A7F002282
:0610C300AC07AB05E4FEE2
:1010C900E4FEC2A6C2A7EF25E0547E4480FF7D0856
:1010D900EF30E703D38001C392A5D2A6EF25E0FF45
:1010E900C2A6DDEC7D08D2A6EE25E0FEA2A4E4337B
:0C10F9004EFEC2A6DDF0D2A7D2A6AF06C4
:0111050022C7
:04110600E4FD7F0184
:10110A00C2A6C2A7EF25E0547EFF7E08EF30E703B0
:10111A00D38001C392A5D2A6EF25E0FFC2A6DEECDA
:10112A007E08ED30E703D38001C392A5D2A6ED2550
:0A113A00E0FDC2A6DEECD2A7D2A6AB
:011144002288
:0D11F9001210C3AE07AF04EB4EFD02110A49
:0511D400F07D087F081A
:0E11D9001210C3AE07AF04EBF45EFD02110A64
:100368007404900029F0A37401F0A37400F0A3743E
:1003780059F0A37401F0A37400F0A37457F07A0045
:0603880079597B017F0C96
:10038E00900026EBF0A3EAF0A3E9F0900025EFF041
:10039E0090003074FEF0E4A3F0A3F0EF24F46010AC
:1003AE0024FE70169000317412F0A37410F0800ABF
:1003BE009000317477F0A37430F0900031E04480F7
:1003CE00FD7F0212110A7D807F041211D9121106CF
:1003DE007D807F0A1211F9E4900034F0A3F09000B2
:1003EE0029E0FF900034E0FCA3E0FDC39FEC9400F5
:1003FE005028900026E0FBA3E0FAA3E0F98D828C52
:10040E0083120677FD7F0912110A900035E004F081
:10041E0070CC900034E004F080C4900025E0FD7FA5
:10042E000112110AE0B40C077D807F0D1211F990B4
:10043E0000347402F0A37458F07F041210C99000B7
:10044E0033EFF0900035E024FFF0900034E034FFFD
:10045E00F0E07002A3E06011900033E0FF20E009AD
:10046E00900032E0FEEF5E60D07D807F0D1211D9DC
:10047E00900034E07002A3E070030205717F061253
:10048E0010C9EF541B600302056B900030F0A3E01F
:10049E00FF900033E05F30E00690003074FFF09084
:1004AE000025E0640C60030205717F0A1210C990EA
:1004BE000033EFF07F0C1210C9EF5407FD6026E0F9
:1004CE0024FFFFE434FFFEEF7803C333CE33CED8E0
:1004DE00F97C002DFFEC3EF990002DE0FBA3E0FA35
:1004EE00A3E0C98016900033E075F008A4FF9000D9
:1004FE002DE0FBA3E0FAA3E0F9E5F08FF012071070
:10050E00900033E0700204F0900033E0D394124078
:10051E00037412F0E4900034F0A3F0900033E0FF87
:10052E00C3900035E09F900034E0940050357F0971
:10053E001210C990002AE0FBA3E0FAA3E0F99000A4
:10054E0034E0FCA3E0F5828C83EF1206B690003502
:10055E00E004F070C6900034E004F080BE900030ED
:10056E0074FEF07D807F0C1211F91211069000308E
:02057E00E0FF9C
:010580002258
:1011E7007F141210C9EF540370077D037F14121187
:0111F700F9FE
:0111F80022D4
:071219007D037F140211D9CF
:03000000020E925B
:0C0E9200787FE4F6D8FD758121020ED9AE
:10058100E709F608DFFA8046E709F208DFFA803E5C
:1005910088828C83E709F0A3DFFA8032E309F60849
:1005A100DFFA8078E309F208DFFA807088828C83B1
:1005B100E309F0A3DFFA806489828A83E0A3F60865
:1005C100DFFA805889828A83E0A3F208DFFA804C3F
:1005D10080D280FA80C680D4806980F28033801016
:1005E10080A680EA809A80A880DA80E280CA80337F
:1005F10089828A83ECFAE493A3C8C582C8CCC583F7
:10060100CCF0A3C8C582C8CCC583CCDFE9DEE780C6
:100611000D89828A83E493A3F608DFF9ECFAA9F045
:10062100EDFB2289828A83ECFAE0A3C8C582C8CC9B
:10063100C583CCF0A3C8C582C8CCC583CCDFEADEB4
:10064100E880DB89828A83E493A3F208DFF980CC16
:1006510088F0EF60010E4E60C388F0ED2402B4040F
:100661000050B9F582EB2402B4040050AF232345B6
:0606710082239005D17305
:10067700BB010CE58229F582E5833AF583E0225038
:1006870006E92582F8E622BBFE06E92582F8E22282
:0D069700E58229F582E5833AF583E493229C
:1006A400BB010689828A83F0225002F722BBFE0135
:0206B400F3222F
:1006B600F8BB010DE58229F582E5833AF583E8F07A
:1006C600225006E92582C8F622BBFE05E92582C826
:0206D600F2220E
:1006D800BB0110E58229F582E5833AF583E0F5F060
:1006E800A3E0225009E92582F886F008E622BBFE3D
:1006F8000AE92582F8E2F5F008E222E5832AF58383
:08070800E993F5F0A3E9932247
:10071000BB010A89828A83F0E5F0A3F0225006F734
:0F07200009A7F01922BBFE06F3E5F009F3192231
:10000300E508240FF582E43400F583E00508229027
:10001300000C30070390000FE475F001120748024B
:10002300072F2000E97F2ED2008018EF540F249071
:10003300D43440D4FF30040BEF24BFB41A00500370
:100043002461FFE50960021509050CE50C70020542
:100053000B30070E90000CE475F001120748EF0215
:1000630006A40211717403D2078003E4C207F508E2
:1000730090000C12075FE4F509F50BF50CE5096038
:10008300077F2012004680F5750AFFC201C200C235
:1000930002C203C205C206C208120012FF700D306D
:1000A30007057F00120057AF0CAE0B22B4255FC2C9
:1000B300D5C204120012FF24D0B40A00501A75F0FE
:1000C3000A780930D50508B6FF0106C6A426F6202E
:1000D300D5047002D20380D924CFB41A00EF5004A0
:1000E300C2E5D204020258D20180C6D20080C0D237
:1000F3000280BCD2D580BAD20580B47F20120046DC
:100103002002077401B5090040F1120003FF120039
:1001130046020080D208D2068095120003FB12002B
:1001230003FA120003F94A4B700679297A037BFF1D
:1001330020022EE509602A7E008E82758300120656
:100143007760060EEE650A70F0C2D5EBC0E0EAC038
:10015300E0E9C0E0EE12029FD0E0F9D0E0FAD0E08F
:10016300FB12072FFF60AAEBC0E0EAC0E0E9C0E0A2
:10017300120046D0E02401F9D0E03400FAD0E0FBCD
:10018300E50A0460DCD50AD980877BFF7A02799B74
:10019300D202809C791080027908C206C2088008C6
:1001A300D2D5790A8004790AC2D5E50A047002F52A
:1001B3000AE4FAFDFEFF120003FC7B082001131280
:1001C3000003FD7B1030000A120003FE120003FF40
:1001D3007B20EC3382D592D55013C3E43000069FC5
:1001E300FFE49EFEE42001039DFDE49CFCE4CBF8C8
:1001F300C201EC700CCFCECDCCE824F8F870F380BC
:1002030017C3EF33FFEE33FEED33FDEC33FCEB337B
:10021300FB994002FB0FD8E9EB300105F8D0E0C4AD
:1002230048B201C0E00AEC4D4E4F78207B0070C20B
:10023300EAB50A0040BCC0E01202A1D0F0D0E02031
:100243000104C4C0E0C4B201C0F012002FD0F0D545
:10025300F0EB020080120768011D5301975800EE6E
:100263004C00EA42019B4F01A34401A3490103430C
:0802730001A955018D46018D22
:10027B0045018D4703495000F22D00F62E01192B35
:10028B0000FA2301172003322A00B24800000111A3
:10029B003F3F3F00790AA2D5200314300509B9105E
:1002AB00020404B9080104A2D5200602500104205F
:1002BB0002689202B509005034C0E07F2030031968
:1002CB007F30A20272067205500F1202F8C202C2F0
:1002DB0006C205C2087F30800F300503E9C0E0126B
:1002EB000046300503D0E0F9D0E0B509CC30051756
:1002FB007F30B9100C1200467F583004077F78808E
:10030B0003B908031200463002057F2D0200467F19
:10031B00202008F87F2B2006F322920280CF286E34
:10032B00756C6C2900D2011200033001F8C2017800
:10033B000930D50108F60200B22D5043495812007E
:10034B00032403B405004001E490034493120037E7
:0D035B00743A120037D203750904020197AD
:100E9E000209BBE493A3F8E493A34003F68001F2A6
:100EAE0008DFF48029E493A3F85407240CC8C33355
:100EBE00C4540F4420C8834004F456800146F6DF24
:100ECE00E4800B0102040810204080901212E47E90
:100EDE00019360BCA3FF543F30E509541FFEE49319
:100EEE00A360010ECF54C025E060A840B8E493A3E0
:100EFE00FAE493A3F8E493A3C8C582C8CAC583CA0B
:100F0E00F0A3C8C582C8CAC583CADFE9DEE780BEC2
:0112180000D5
:10072F00BB010689828A83E0225002E722BBFE02C8
:09073F00E32289828A83E49322FB
:10074800F8E0FBA3A3E0F925F0F0E582158270023A
:070758001583E0FA38F022DE
:09075F00EBF0A3EAF0A3E9F0229B
:10076800D083D082F8E4937012740193700DA3A320
:1007780093F8740193F5828883E473740293686034
:06078800EFA3A3A380DF34
:10117100EFB40A07740D12117C740A309811A89902
:10118100B8130CC2983098FDA899C298B811F630DE
:0711910099FDC299F59922B6
:00000001FF
