:1011B800BFA8BAC5CAC720A3BA002558000A00BFED
:1011C800A8BAC5B4EDCEF320B4EDCEF3B5C4BFA82C
:1011D800BAC5CAC720A3BA0000D5005E002A00D944
:0612A900C10BC18AC1095E
:10123B00D3EF9400EE940040147D6E7C00ED1D7096
:0D124B00011CED4C70F7EF1F70E61E80E3F4
:011258002273
:0B10190090000CEBF0A3EAF0A3E9F05C
:10102400E4900012F0A3F0900012E0FEA3E0FFC3EE
:101034009404EE64809480505F90000CE0FBA3E085
:10104400FAA3E0F98F828E83120677FD7C0090006C
:1010540013E025E0FF900012E033FE90000FE0FB68
:10106400A3E0FAA3E0F98F828E831206D8FFAEF0D4
:10107400D3ED9FEC9E40057E007F0122C3ED9FECE3
:101084009E50057EFF7FFF22900013E004F07097CE
:0B109400900012E004F0808FE4FEFFEB
:01109F00222E
:10078E0078027C007D017BFF7A1179E07E007F0884
:10079E0012065180127B017A00796E7F52120F91F0
:1007AE00900000EFF0600E1211E81210F21212B06B
:1007BE0012128A80E07B017A00796E120BB29000E1
:1007CE0000EFF070D090000F7401F0A37400F0A34E
:1007DE007402F07B017A00796E121019EF4E70637D
:1007EE00C2807F64FE12123BD2807F647E001212A2
:1007FE003BC2807FC87E0012123BD2807BFF7A11F3
:10080E0079B812006EE4900001F0900001E0FFC391
:10081E0094045076746E2FF582E43400F583E0FF75
:10082E007E0090000AEEF0A3EFF07BFF7A1179C202
:10083E0090000FEEF0A3EFF012006E900001E004B6
:10084E00F080C77BFF7A1179C712006EE490000129
:10085E00F0900001E0FFC39404502F746E2FF582C8
:10086E00E43400F583E0FF7E0090000AEEF0A3EF83
:10087E00F07BFF7A1179C290000FEEF0A3EFF01229
:10088E00006E900001E004F080C77BFF7A1179C5FD
:10089E0012006EE4900001F0E4FFFE0FBF00010EA7
:1008AE00EF64504E70F5B2B6900001E004F0E0B483
:0808BE00FAE61210A00207A3E4
:1011E8007580FF7590FF75B0FF75A0FF7589217533
:1011F8009850758DF4758BF4E4F58CF58AD28CD201
:0C120800A9D28ED299D2AFD2ACD29822DB
:10125900D3EF9400EE940040147D6E7C00ED1D7078
:0D126900011CED4C70F7EF1F70E61E80E3D6
:011276002255
:0D0F910090000CEFF0A3EBF0A3EAF0A3E951
:100F9E001212777D077F0D12117D7D037F141212C1
:100FAE009C90000CE0900012F09000297401F0A3C8
:100FBE00F0A37400F0A37412F0A37401F0A37400F4
:100FCE00F0A37410F07A00791212038AEF70399040
:100FDE000010E07004A3E06410702D900012E0FE8B
:100FEE0090000DE0FBA3E0FAA3E0F9EE1206A49048
:100FFE000013E0FE90000DE0FBA3E0FAA3E0F990F1
:0A100E000001EE1206B680027FFE1C
:0110180022B5
:0B0BB20090000CEBF0A3EAF0A3E9F0C8
:100BBD00E4900010121277E4FD7F0D12117D7D80FF
:100BCD007F0E12127C9000137493F0A37420F0909A
:100BDD0000297402F07B01A314F0A37400F0A37438
:100BED0013F0A3EBF0A37400F0A37411F07A007965
:100BFD00137F0C12038E90000FEFF07058FC7413DE
:100C0D002CF582E43400F583E0FE90000CE0FBA3AC
:100C1D00E0FAA3E0F9AF048F82758300EE1206B6F9
:100C2D00900010E0FE74132FF582E43400F583E09C
:100C3D00FDEE6D900010F00CECB404C274132CF5A5
:100C4D0082E43400F583E0FF900010E06F600690C1
:100C5D00000F74FEF07D807F0E12129C90000FE04D
:010C6D00FF87
:010C6E002263
:0B0D2300900082EBF0A3EAF0A3E9F0DF
:100D2E009000877493F0A37470F0E490008DF0FC43
:100D3E00900082E0FBA3E0FAA3E0F9AF048F827586
:100D4E008300120677FE74892FF582E43400F58352
:100D5E00EEF090008DE0FE8F82758300120677FD17
:100D6E00EE6D90008DF00CECB404C590002574016E
:100D7E00F0A37400F0A3748EF07B017A0079877D66
:100D8E0007120C861212789000297409F0A37401D0
:100D9E00F0A37400F0A37487F0A37401F0A37400A1
:100DAE00F0A37485F07B017A0079877F0C12038E95
:100DBE00EF700F900085E07004A3E064187003FFDD
:040DCE0080027FFE22
:010DD20022FE
:0B0DD300900038EBF0A3EAF0A3E9F079
:100DDE00900041EFF0A3EDF0E4FF900038E0FBA3AC
:100DEE00E0FAA3E0F98F82758300120677FE744352
:100DFE002FF582E43400F583EEF00FEFB406DBE45A
:100E0E00FF90003BE0FBA3E0FAA3E0F98F8275832D
:100E1E0000120677FE74492FF582E43400F583EE56
:100E2E00F00FEFB406DB900029740CF0A37401F000
:100E3E00A37400F0A37441F0A37401F0A37400F046
:100E4E00A3743FF07B017A0079417F0E12038E90DE
:100E5E00003EEFF070097F0812113CEF20E3069080
:0A0E6E00003E74FEF090003EE0FF2D
:010E78002257
:0B0E7900900099EBF0A3EAF0A3E9F071
:100E840090009E7430F0A3EFF09000257401F0A35D
:100E94007400F0A374A0F07A00799E120C82900082
:100EA400297404F0A37401F0A37400F0A3749EF0F9
:100EB400A37401F0A37400F0A3749CF07B017A0086
:100EC400799E7F0C12038EEF703490009CE07004C6
:100ED400A3E064907028FE749E2EF582E43400F53D
:100EE40083E0FD900099E0FBA3E0FAA3E0F98E8291
:100EF400758300ED1206B60EEEB410DB80027FFEA1
:010F040022CA
:0B09F8009000B0EBF0A3EAF0A3E9F0E0
:100A03009000B574A0F0A3EFF09000257401F0A35B
:100A13007400F0A374B7F07B017A0079B57D0212FC
:100A23000C869000297404F0A37401F0A37400F001
:100A3300A374B5F0A37401F0A37400F0A374B3F02E
:100A43007B017A0079B57F0C12038EEF701690004C
:100A5300B3E07004A3E06404700A9000B5E0540F9F
:100A6300640A60027FFEEF6003020AF2FE9000B0A8
:100A7300E0FBA3E0FAA3E0F98E8275830012067708
:100A8300FD74B52EF582E43400F583EDF00EEEB47B
:100A930010DB9000257401F0A37400F0A374C5F07B
:100AA3007B017A0079B57D10120C869000297412AF
:100AB300F0A37401F0A37400F0A374B5F0A3740160
:100AC300F0A37400F0A374B3F07B017A0079B57FCF
:100AD3000C12038EEF70169000B3E07004A3E06471
:0F0AE30004700A9000B5E0540F640A60027FFEB1
:010AF20022E1
:100AF300900054EBF0A3EAF0A3E9F0900053EDF07B
:100B0300900059EFF0A3ED120C6F120368EF70160B
:100B1300900057E07004A3E06404700A900059E069
:100B2300540F640A60027FFEEF7052FE900054E09F
:100B3300FBA3E0FAA3E0F98E82758300120677FD2A
:100B430074592EF582E43400F583EDF00EEEB41003
:100B5300DB9000257401F0A37400F0A3745DF07BB7
:100B6300017A0079597D04120C86E4900057F0A3B2
:100B7300F0740612036AEF64FE6002E4FFEF702E66
:100B830090005974B0F0900053E090005A120C6F2B
:100B9300120368EF7016900057E07004A3E064043A
:0E0BA300700A900059E0540F640A60027FFE51
:010BB1002221
:0508C6009000C7EDF0F9
:1008CB009000CA74C2F0A3EFF09000257401F0A35E
:1008DB007400F0A374CCF07B017A0079CA7D02120C
:1008EB000C869000297404F0A37401F0A37400F03B
:1008FB00A374CAF0A37401F0A37400F0A374C8F03E
:10090B007B017A0079CA7F0C12038EEF7016900070
:10091B00C8E07004A3E06404700A9000CAE0540FAE
:10092B00640A60027FFEEF70529000CAF0A3F0A33E
:10093B00F0A3F07B0190002504F0A37400F0A374E6
:10094B00CEF07A0079CA7D04120C869000297406C9
:10095B00F0A37401F0A37400F0A374CAF0A37401A4
:10096B00F0A37400F0A374C8F07B017A0079CA7FFE
:10097B000C12038EEF64FE6002E4FFEF60037FFE58
:10098B00229000CA74B0F09000C7E09000CBF090BA
:10099B0000257401F0A37400F0A374CCF07B017AF2
:1009AB000079CA7D02120C869000297404F0A3749E
:1009BB0001F0A37400F0A374CAF0A37401F0A37444
:1009CB0000F0A374C8F07B017A0079CA7F0C120384
:1009DB008EEF70169000C8E07004A3E06404700AF8
:0C09EB009000CAE0540F640A60027FFE16
:0109F70022DD
:1010A00090000F7450F0E4A3F07B0190002504F051
:1010B000A37400F0A37411F07A00790F7D02120C72
:1010C000869000297404F0A37401F0A37400F0A3C7
:1010D000740FF0A37401F0A37400F0A3740DF07BFF
:1010E000017A00790F7F0C12038E90000CEFF07FD5
:0110F00000FF
:0110F10022DC
:100C6F00F09000257401F0A37400F0A3745BF07A88
:070C7F000079597B017D02A1
:0E0C8600900021EBF0A3EAF0A3E9F0A3EDF05B
:100C94007D047F0512127C1211797D807F0A121265
:100CA4009CE4900028F0900024E0FF900028E0FEEF
:100CB400C39F5021900021E0FBA3E0FAA3E0F98E4A
:100CC40082758300120677FD7F0912117D9000283A
:100CD400E004F080D17D037F0112117D900028741F
:100CE400FFF07F0512113C900028E014F0E060044E
:100CF400EF30E2EE7F2212113C900025E0FBA3E0EE
:100D0400FAA3E0F9EF1206A47F2112113C9000250A
:0F0D1400E0FBA3E0FAA3E0F9900001EF0206B6BE
:1010F200D2A300C2A300D2A37F0A7E001212597D9E
:101102000F7F0112117D007D3D7F1112117D7D1E29
:101112007F2D12117DE4FD7F2C12117D7D8D7F2AA2
:1011220012117D7D3E7F2B12117D7D407F151211A4
:041132007D7F00229B
:06113600AC07AB05E4FE6E
:10113C00E4FEC2A6C2A7EF25E0547E4480FF7D08E2
:10114C00EF30E703D38001C392A5D2A6EF25E0FFD1
:10115C00C2A6DDEC7D08D2A6EE25E0FEA2A4E43307
:0C116C004EFEC2A6DDF0D2A7D2A6AF0650
:011178002254
:04117900E4FD7F0111
:10117D00C2A6C2A7EF25E0547EFF7E08EF30E7033D
:10118D00D38001C392A5D2A6EF25E0FFC2A6DEEC67
:10119D007E08ED30E703D38001C392A5D2A6ED25DD
:0A11AD00E0FDC2A6DEECD2A7D2A638
:0111B7002215
:0D129C00121136AE07AF04EB4EFD02117DBE
:05127700F07D087F0876
:0E127C00121136AE07AF04EBF45EFD02117DD9
:100368007404900029F0A37401F0A37400F0A3743E
:1003780059F0A37401F0A37400F0A37457F07A0045
:0603880079597B017F0C96
:10038E00900026EBF0A3EAF0A3E9F0900025EFF041
:10039E0090003074FEF0E4A3F0A3F0EF24F46010AC
:1003AE0024FE70169000317412F0A37410F0800ABF
:1003BE009000317477F0A37430F0900031E04480F7
:1003CE00FD7F0212117D7D807F0412127C12117945
:1003DE007D807F0A12129CE4900034F0A3F090000E
:1003EE0029E0FF900034E0FCA3E0FDC39FEC9400F5
:1003FE005028900026E0FBA3E0FAA3E0F98D828C52
:10040E0083120677FD7F0912117D900035E004F00E
:10041E0070CC900034E004F080C4900025E0FD7FA5
:10042E000112117DE0B40C077D807F0D12129C909D
:10043E0000347402F0A37458F07F0412113C900043
:10044E0033EFF0900035E024FFF0900034E034FFFD
:10045E00F0E07002A3E06011900033E0FF20E009AD
:10046E00900032E0FEEF5E60D07D807F0D12127C38
:10047E00900034E07002A3E070030205717F061253
:10048E00113CEF541B600302056B900030F0A3E0AB
:10049E00FF900033E05F30E00690003074FFF09084
:1004AE000025E0640C60030205717F0A12113C9076
:1004BE000033EFF07F0C12113CEF5407FD6026E085
:1004CE0024FFFFE434FFFEEF7803C333CE33CED8E0
:1004DE00F97C002DFFEC3EF990002DE0FBA3E0FA35
:1004EE00A3E0C98016900033E075F008A4FF9000D9
:1004FE002DE0FBA3E0FAA3E0F9E5F08FF012071070
:10050E00900033E0700204F0900033E0D394124078
:10051E00037412F0E4900034F0A3F0900033E0FF87
:10052E00C3900035E09F900034E0940050357F0971
:10053E0012113C90002AE0FBA3E0FAA3E0F9900030
:10054E0034E0FCA3E0F5828C83EF1206B690003502
:10055E00E004F070C6900034E004F080BE900030ED
:10056E0074FEF07D807F0C12129C12117990003077
:02057E00E0FF9C
:010580002258
:10128A007F1412113CEF540370077D037F1412126E
:01129A009CB7
:01129B002230
:0712B0007D037F1402127C94
:03000000020F05E7
:0C0F0500787FE4F6D8FD758121020F4CC6
:10058100E709F608DFFA8046E709F208DFFA803E5C
:1005910088828C83E709F0A3DFFA8032E309F60849
:1005A100DFFA8078E309F208DFFA807088828C83B1
:1005B100E309F0A3DFFA806489828A83E0A3F60865
:1005C100DFFA805889828A83E0A3F208DFFA804C3F
:1005D10080D280FA80C680D4806980F28033801016
:1005E10080A680EA809A80A880DA80E280CA80337F
:1005F10089828A83ECFAE493A3C8C582C8CCC583F7
:10060100CCF0A3C8C582C8CCC583CCDFE9DEE780C6
:100611000D89828A83E493A3F608DFF9ECFAA9F045
:10062100EDFB2289828A83ECFAE0A3C8C582C8CC9B
:10063100C583CCF0A3C8C582C8CCC583CCDFEADEB4
:10064100E880DB89828A83E493A3F208DFF980CC16
:1006510088F0EF60010E4E60C388F0ED2402B4040F
:100661000050B9F582EB2402B4040050AF232345B6
:0606710082239005D17305
:10067700BB010CE58229F582E5833AF583E0225038
:1006870006E92582F8E622BBFE06E92582F8E22282
:0D069700E58229F582E5833AF583E493229C
:1006A400BB010689828A83F0225002F722BBFE0135
:0206B400F3222F
:1006B600F8BB010DE58229F582E5833AF583E8F07A
:1006C600225006E92582C8F622BBFE05E92582C826
:0206D600F2220E
:1006D800BB0110E58229F582E5833AF583E0F5F060
:1006E800A3E0225009E92582F886F008E622BBFE3D
:1006F8000AE92582F8E2F5F008E222E5832AF58383
:08070800E993F5F0A3E9932247
:10071000BB010A89828A83F0E5F0A3F0225006F734
:0F07200009A7F01922BBFE06F3E5F009F3192231
:10000300E508240FF582E43400F583E00508229027
:10001300000C30070390000FE475F001120748024B
:10002300072F2000E97F2ED2008018EF540F249071
:10003300D43440D4FF30040BEF24BFB41A00500370
:100043002461FFE50960021509050CE50C70020542
:100053000B30070E90000CE475F001120748EF0215
:1000630006A40212147403D2078003E4C207F5083E
:1000730090000C12075FE4F509F50BF50CE5096038
:10008300077F2012004680F5750AFFC201C200C235
:1000930002C203C205C206C208120012FF700D306D
:1000A30007057F00120057AF0CAE0B22B4255FC2C9
:1000B300D5C204120012FF24D0B40A00501A75F0FE
:1000C3000A780930D50508B6FF0106C6A426F6202E
:1000D300D5047002D20380D924CFB41A00EF5004A0
:1000E300C2E5D204020258D20180C6D20080C0D237
:1000F3000280BCD2D580BAD20580B47F20120046DC
:100103002002077401B5090040F1120003FF120039
:1001130046020080D208D2068095120003FB12002B
:1001230003FA120003F94A4B700679297A037BFF1D
:1001330020022EE509602A7E008E82758300120656
:100143007760060EEE650A70F0C2D5EBC0E0EAC038
:10015300E0E9C0E0EE12029FD0E0F9D0E0FAD0E08F
:10016300FB12072FFF60AAEBC0E0EAC0E0E9C0E0A2
:10017300120046D0E02401F9D0E03400FAD0E0FBCD
:10018300E50A0460DCD50AD980877BFF7A02799B74
:10019300D202809C791080027908C206C2088008C6
:1001A300D2D5790A8004790AC2D5E50A047002F52A
:1001B3000AE4FAFDFEFF120003FC7B082001131280
:1001C3000003FD7B1030000A120003FE120003FF40
:1001D3007B20EC3382D592D55013C3E43000069FC5
:1001E300FFE49EFEE42001039DFDE49CFCE4CBF8C8
:1001F300C201EC700CCFCECDCCE824F8F870F380BC
:1002030017C3EF33FFEE33FEED33FDEC33FCEB337B
:10021300FB994002FB0FD8E9EB300105F8D0E0C4AD
:1002230048B201C0E00AEC4D4E4F78207B0070C20B
:10023300EAB50A0040BCC0E01202A1D0F0D0E02031
:100243000104C4C0E0C4B201C0F012002FD0F0D545
:10025300F0EB020080120768011D5301975800EE6E
:100263004C00EA42019B4F01A34401A3490103430C
:0802730001A955018D46018D22
:10027B0045018D4703495000F22D00F62E01192B35
:10028B0000FA2301172003322A00B24800000111A3
:10029B003F3F3F00790AA2D5200314300509B9105E
:1002AB00020404B9080104A2D5200602500104205F
:1002BB0002689202B509005034C0E07F2030031968
:1002CB007F30A20272067205500F1202F8C202C2F0
:1002DB0006C205C2087F30800F300503E9C0E0126B
:1002EB000046300503D0E0F9D0E0B509CC30051756
:1002FB007F30B9100C1200467F583004077F78808E
:10030B0003B908031200463002057F2D0200467F19
:10031B00202008F87F2B2006F322920280CF286E34
:10032B00756C6C2900D2011200033001F8C2017800
:10033B000930D50108F60200B22D5043495812007E
:10034B00032403B405004001E490034493120037E7
:0D035B00743A120037D203750904020197AD
:100F110002078EE493A3F8E493A34003F68001F261
:100F210008DFF48029E493A3F85407240CC8C333E1
:100F3100C4540F4420C8834004F456800146F6DFB0
:100F4100E4800B01020408102040809012A9E47E85
:100F5100019360BCA3FF543F30E509541FFEE493A5
:100F6100A360010ECF54C025E060A840B8E493A36C
:100F7100FAE493A3F8E493A3C8C582C8CAC583CA97
:100F8100F0A3C8C582C8CAC583CADFE9DEE780BE4F
:0112AF00003E
:10072F00BB010689828A83E0225002E722BBFE02C8
:09073F00E32289828A83E49322FB
:10074800F8E0FBA3A3E0F925F0F0E582158270023A
:070758001583E0FA38F022DE
:09075F00EBF0A3EAF0A3E9F0229B
:10076800D083D082F8E4937012740193700DA3A320
:1007780093F8740193F5828883E473740293686034
:06078800EFA3A3A380DF34
:10121400EFB40A07740D12121F740A309811A899BA
:10122400B8130CC2983098FDA899C298B811F6303A
:0712340099FDC299F5992212
:00000001FF
